{
  "contractName": "Applications",
  "abi": [
    {
      "inputs": [],
      "name": "applicationCount",
      "outputs": [
        {
          "internalType": "uint256",
          "name": "",
          "type": "uint256"
        }
      ],
      "stateMutability": "view",
      "type": "function",
      "constant": true
    },
    {
      "inputs": [
        {
          "internalType": "uint256",
          "name": "",
          "type": "uint256"
        }
      ],
      "name": "applicationsID",
      "outputs": [
        {
          "internalType": "string",
          "name": "Title",
          "type": "string"
        },
        {
          "internalType": "string",
          "name": "Description",
          "type": "string"
        },
        {
          "internalType": "string",
          "name": "userId",
          "type": "string"
        },
        {
          "internalType": "string",
          "name": "Cid",
          "type": "string"
        },
        {
          "internalType": "string",
          "name": "Inventor",
          "type": "string"
        }
      ],
      "stateMutability": "view",
      "type": "function",
      "constant": true
    },
    {
      "inputs": [],
      "name": "owner",
      "outputs": [
        {
          "internalType": "address",
          "name": "",
          "type": "address"
        }
      ],
      "stateMutability": "view",
      "type": "function",
      "constant": true
    },
    {
      "inputs": [],
      "name": "value",
      "outputs": [
        {
          "internalType": "uint256",
          "name": "",
          "type": "uint256"
        }
      ],
      "stateMutability": "view",
      "type": "function",
      "constant": true
    },
    {
      "inputs": [
        {
          "internalType": "string",
          "name": "newTitle",
          "type": "string"
        },
        {
          "internalType": "string",
          "name": "newDescription",
          "type": "string"
        },
        {
          "internalType": "string",
          "name": "newInventor",
          "type": "string"
        },
        {
          "internalType": "string",
          "name": "newUserID",
          "type": "string"
        },
        {
          "internalType": "string",
          "name": "newCid",
          "type": "string"
        }
      ],
      "name": "changeValue",
      "outputs": [],
      "stateMutability": "payable",
      "type": "function",
      "payable": true
    }
  ],
  "bytecode": "0x608060405234801561001057600080fd5b50610b0d806100206000396000f3fe60806040526004361061004a5760003560e01c80633fa4f2451461004f5780638da5cb5b1461007a578063bf2bc75c146100a5578063e2aad4a0146100c1578063e6bcb675146100ec575b600080fd5b34801561005b57600080fd5b5061006461012d565b60405161007191906109a8565b60405180910390f35b34801561008657600080fd5b5061008f610133565b60405161009c9190610917565b60405180910390f35b6100bf60048036038101906100ba9190610792565b610157565b005b3480156100cd57600080fd5b506100d661039c565b6040516100e391906109a8565b60405180910390f35b3480156100f857600080fd5b50610113600480360381019061010e9190610897565b6103a2565b604051610124959493929190610932565b60405180910390f35b60015481565b60008054906101000a900473ffffffffffffffffffffffffffffffffffffffff1681565b60026040518060a001604052808c8c8080601f016020809104026020016040519081016040528093929190818152602001838380828437600081840152601f19601f8201169050808301925050505050505081526020018a8a8080601f016020809104026020016040519081016040528093929190818152602001838380828437600081840152601f19601f82011690508083019250505050505050815260200186868080601f016020809104026020016040519081016040528093929190818152602001838380828437600081840152601f19601f82011690508083019250505050505050815260200184848080601f016020809104026020016040519081016040528093929190818152602001838380828437600081840152601f19601f82011690508083019250505050505050815260200188888080601f016020809104026020016040519081016040528093929190818152602001838380828437600081840152601f19601f8201169050808301925050505050505081525090806001815401808255809150506001900390600052602060002090600502016000909190919091506000820151816000019080519060200190610319929190610690565b506020820151816001019080519060200190610336929190610690565b506040820151816002019080519060200190610353929190610690565b506060820151816003019080519060200190610370929190610690565b50608082015181600401908051906020019061038d929190610690565b50505050505050505050505050565b60035481565b600281815481106103b257600080fd5b90600052602060002090600502016000915090508060000180546103d590610a4e565b80601f016020809104026020016040519081016040528092919081815260200182805461040190610a4e565b801561044e5780601f106104235761010080835404028352916020019161044e565b820191906000526020600020905b81548152906001019060200180831161043157829003601f168201915b50505050509080600101805461046390610a4e565b80601f016020809104026020016040519081016040528092919081815260200182805461048f90610a4e565b80156104dc5780601f106104b1576101008083540402835291602001916104dc565b820191906000526020600020905b8154815290600101906020018083116104bf57829003601f168201915b5050505050908060020180546104f190610a4e565b80601f016020809104026020016040519081016040528092919081815260200182805461051d90610a4e565b801561056a5780601f1061053f5761010080835404028352916020019161056a565b820191906000526020600020905b81548152906001019060200180831161054d57829003601f168201915b50505050509080600301805461057f90610a4e565b80601f01602080910402602001604051908101604052809291908181526020018280546105ab90610a4e565b80156105f85780601f106105cd576101008083540402835291602001916105f8565b820191906000526020600020905b8154815290600101906020018083116105db57829003601f168201915b50505050509080600401805461060d90610a4e565b80601f016020809104026020016040519081016040528092919081815260200182805461063990610a4e565b80156106865780601f1061065b57610100808354040283529160200191610686565b820191906000526020600020905b81548152906001019060200180831161066957829003601f168201915b5050505050905085565b82805461069c90610a4e565b90600052602060002090601f0160209004810192826106be5760008555610705565b82601f106106d757805160ff1916838001178555610705565b82800160010185558215610705579182015b828111156107045782518255916020019190600101906106e9565b5b5090506107129190610716565b5090565b5b8082111561072f576000816000905550600101610717565b5090565b60008083601f84011261074557600080fd5b8235905067ffffffffffffffff81111561075e57600080fd5b60208301915083600182028301111561077657600080fd5b9250929050565b60008135905061078c81610ac0565b92915050565b60008060008060008060008060008060a08b8d0312156107b157600080fd5b60008b013567ffffffffffffffff8111156107cb57600080fd5b6107d78d828e01610733565b9a509a505060208b013567ffffffffffffffff8111156107f657600080fd5b6108028d828e01610733565b985098505060408b013567ffffffffffffffff81111561082157600080fd5b61082d8d828e01610733565b965096505060608b013567ffffffffffffffff81111561084c57600080fd5b6108588d828e01610733565b945094505060808b013567ffffffffffffffff81111561087757600080fd5b6108838d828e01610733565b92509250509295989b9194979a5092959850565b6000602082840312156108a957600080fd5b60006108b78482850161077d565b91505092915050565b6108c9816109df565b82525050565b60006108da826109c3565b6108e481856109ce565b93506108f4818560208601610a1b565b6108fd81610aaf565b840191505092915050565b61091181610a11565b82525050565b600060208201905061092c60008301846108c0565b92915050565b600060a082019050818103600083015261094c81886108cf565b9050818103602083015261096081876108cf565b9050818103604083015261097481866108cf565b9050818103606083015261098881856108cf565b9050818103608083015261099c81846108cf565b90509695505050505050565b60006020820190506109bd6000830184610908565b92915050565b600081519050919050565b600082825260208201905092915050565b60006109ea826109f1565b9050919050565b600073ffffffffffffffffffffffffffffffffffffffff82169050919050565b6000819050919050565b60005b83811015610a39578082015181840152602081019050610a1e565b83811115610a48576000848401525b50505050565b60006002820490506001821680610a6657607f821691505b60208210811415610a7a57610a79610a80565b5b50919050565b7f4e487b7100000000000000000000000000000000000000000000000000000000600052602260045260246000fd5b6000601f19601f8301169050919050565b610ac981610a11565b8114610ad457600080fd5b5056fea26469706673582212205b0f30a85d347c4d68ff7f3b8585908995076e9a52eb04b899bc0bdcf6fae06064736f6c63430008000033",
  "immutableReferences": {},
  "source": "// SPDX-License-Identifier: MIT\r\npragma solidity >=0.4.22 <0.9.0;\r\n\r\ncontract Applications{\r\n    address public owner;\r\n    uint public value;\r\n    struct Application {\r\n         string Title;\r\n         string Description;\r\n         string userId;\r\n         string Cid;\r\n         string Inventor;\r\n\r\n     }\r\n     Application[] public applicationsID;\r\n     uint256 public applicationCount;\r\n\r\n  \r\n\r\n    function changeValue(string calldata newTitle, string calldata newDescription, string calldata newInventor, string calldata newUserID, string calldata newCid) public payable {\r\napplicationsID.push(Application({Title:newTitle,Description:newDescription,userId:newUserID,Cid:newCid,Inventor:newInventor}));\r\n        // string memory newTitle, string memory newDescription\r\n        // patentsID[patentCount] = Patent(newTitle, newDescription); , ,\r\n        // patentCount++;\r\n\r\n    }\r\n}",
  "sourcePath": "D:\\fnlyr proj\\patentblockchain\\client\\src\\blockchain\\contracts\\Applications.sol",
  "compiler": {
    "name": "solc",
    "version": "0.8.0+commit.c7dfd78e.Emscripten.clang"
  },
  "schemaVersion": "3.4.16",
  "updatedAt": "2024-04-05T13:56:11.114Z",
  "networkType": "ethereum",
  "devdoc": {
    "kind": "dev",
    "methods": {},
    "version": 1
  },
  "userdoc": {
    "kind": "user",
    "methods": {},
    "version": 1
  }
}