{
  "contractName": "Patents",
  "abi": [
    {
      "inputs": [],
      "name": "owner",
      "outputs": [
        {
          "internalType": "address",
          "name": "",
          "type": "address"
        }
      ],
      "stateMutability": "view",
      "type": "function",
      "constant": true
    },
    {
      "inputs": [],
      "name": "patentCount",
      "outputs": [
        {
          "internalType": "uint256",
          "name": "",
          "type": "uint256"
        }
      ],
      "stateMutability": "view",
      "type": "function",
      "constant": true
    },
    {
      "inputs": [
        {
          "internalType": "uint256",
          "name": "",
          "type": "uint256"
        }
      ],
      "name": "patentsID",
      "outputs": [
        {
          "internalType": "string",
          "name": "Title",
          "type": "string"
        },
        {
          "internalType": "string",
          "name": "Description",
          "type": "string"
        },
        {
          "internalType": "string",
          "name": "userId",
          "type": "string"
        },
        {
          "internalType": "string",
          "name": "Cid",
          "type": "string"
        },
        {
          "internalType": "string",
          "name": "Inventor",
          "type": "string"
        },
        {
          "internalType": "string",
          "name": "ApplicationID",
          "type": "string"
        }
      ],
      "stateMutability": "view",
      "type": "function",
      "constant": true
    },
    {
      "inputs": [],
      "name": "value",
      "outputs": [
        {
          "internalType": "uint256",
          "name": "",
          "type": "uint256"
        }
      ],
      "stateMutability": "view",
      "type": "function",
      "constant": true
    },
    {
      "inputs": [
        {
          "internalType": "string",
          "name": "newTitle",
          "type": "string"
        },
        {
          "internalType": "string",
          "name": "newDescription",
          "type": "string"
        },
        {
          "internalType": "string",
          "name": "newInventor",
          "type": "string"
        },
        {
          "internalType": "string",
          "name": "newUserID",
          "type": "string"
        },
        {
          "internalType": "string",
          "name": "newCid",
          "type": "string"
        },
        {
          "internalType": "string",
          "name": "newapplicationid",
          "type": "string"
        }
      ],
      "name": "changeValue",
      "outputs": [],
      "stateMutability": "payable",
      "type": "function",
      "payable": true
    }
  ],
  "bytecode": "0x608060405234801561001057600080fd5b50610d08806100206000396000f3fe60806040526004361061004a5760003560e01c80633fa4f2451461004f57806377b682361461007a5780638da5cb5b146100bc578063b084c841146100e7578063da68c5a714610112575b600080fd5b34801561005b57600080fd5b5061006461012e565b6040516100719190610b04565b60405180910390f35b34801561008657600080fd5b506100a1600480360381019061009c91906109de565b610134565b6040516100b396959493929190610a79565b60405180910390f35b3480156100c857600080fd5b506100d16104b0565b6040516100de9190610a5e565b60405180910390f35b3480156100f357600080fd5b506100fc6104d4565b6040516101099190610b04565b60405180910390f35b61012c600480360381019061012791906108ad565b6104da565b005b60015481565b6002818154811061014457600080fd5b906000526020600020906006020160009150905080600001805461016790610c1a565b80601f016020809104026020016040519081016040528092919081815260200182805461019390610c1a565b80156101e05780601f106101b5576101008083540402835291602001916101e0565b820191906000526020600020905b8154815290600101906020018083116101c357829003601f168201915b5050505050908060010180546101f590610c1a565b80601f016020809104026020016040519081016040528092919081815260200182805461022190610c1a565b801561026e5780601f106102435761010080835404028352916020019161026e565b820191906000526020600020905b81548152906001019060200180831161025157829003601f168201915b50505050509080600201805461028390610c1a565b80601f01602080910402602001604051908101604052809291908181526020018280546102af90610c1a565b80156102fc5780601f106102d1576101008083540402835291602001916102fc565b820191906000526020600020905b8154815290600101906020018083116102df57829003601f168201915b50505050509080600301805461031190610c1a565b80601f016020809104026020016040519081016040528092919081815260200182805461033d90610c1a565b801561038a5780601f1061035f5761010080835404028352916020019161038a565b820191906000526020600020905b81548152906001019060200180831161036d57829003601f168201915b50505050509080600401805461039f90610c1a565b80601f01602080910402602001604051908101604052809291908181526020018280546103cb90610c1a565b80156104185780601f106103ed57610100808354040283529160200191610418565b820191906000526020600020905b8154815290600101906020018083116103fb57829003601f168201915b50505050509080600501805461042d90610c1a565b80601f016020809104026020016040519081016040528092919081815260200182805461045990610c1a565b80156104a65780601f1061047b576101008083540402835291602001916104a6565b820191906000526020600020905b81548152906001019060200180831161048957829003601f168201915b5050505050905086565b60008054906101000a900473ffffffffffffffffffffffffffffffffffffffff1681565b60035481565b60026040518060c001604052808d8d8080601f016020809104026020016040519081016040528093929190818152602001838380828437600081840152601f19601f8201169050808301925050505050505081526020018b8b8080601f016020809104026020016040519081016040528093929190818152602001838380828437600081840152601f19601f82011690508083019250505050505050815260200187878080601f016020809104026020016040519081016040528093929190818152602001838380828437600081840152601f19601f82011690508083019250505050505050815260200185858080601f016020809104026020016040519081016040528093929190818152602001838380828437600081840152601f19601f82011690508083019250505050505050815260200189898080601f016020809104026020016040519081016040528093929190818152602001838380828437600081840152601f19601f82011690508083019250505050505050815260200183815250908060018154018082558091505060019003906000526020600020906006020160009091909190915060008201518160000190805190602001906106a2929190610743565b5060208201518160010190805190602001906106bf929190610743565b5060408201518160020190805190602001906106dc929190610743565b5060608201518160030190805190602001906106f9929190610743565b506080820151816004019080519060200190610716929190610743565b5060a0820151816005019080519060200190610733929190610743565b5050505050505050505050505050565b82805461074f90610c1a565b90600052602060002090601f01602090048101928261077157600085556107b8565b82601f1061078a57805160ff19168380011785556107b8565b828001600101855582156107b8579182015b828111156107b757825182559160200191906001019061079c565b5b5090506107c591906107c9565b5090565b5b808211156107e25760008160009055506001016107ca565b5090565b60006107f96107f484610b50565b610b1f565b90508281526020810184848401111561081157600080fd5b61081c848285610bd8565b509392505050565b60008083601f84011261083657600080fd5b8235905067ffffffffffffffff81111561084f57600080fd5b60208301915083600182028301111561086757600080fd5b9250929050565b600082601f83011261087f57600080fd5b813561088f8482602086016107e6565b91505092915050565b6000813590506108a781610cbb565b92915050565b600080600080600080600080600080600060c08c8e0312156108ce57600080fd5b60008c013567ffffffffffffffff8111156108e857600080fd5b6108f48e828f01610824565b9b509b505060208c013567ffffffffffffffff81111561091357600080fd5b61091f8e828f01610824565b995099505060408c013567ffffffffffffffff81111561093e57600080fd5b61094a8e828f01610824565b975097505060608c013567ffffffffffffffff81111561096957600080fd5b6109758e828f01610824565b955095505060808c013567ffffffffffffffff81111561099457600080fd5b6109a08e828f01610824565b935093505060a08c013567ffffffffffffffff8111156109bf57600080fd5b6109cb8e828f0161086e565b9150509295989b509295989b9093969950565b6000602082840312156109f057600080fd5b60006109fe84828501610898565b91505092915050565b610a1081610b9c565b82525050565b6000610a2182610b80565b610a2b8185610b8b565b9350610a3b818560208601610be7565b610a4481610caa565b840191505092915050565b610a5881610bce565b82525050565b6000602082019050610a736000830184610a07565b92915050565b600060c0820190508181036000830152610a938189610a16565b90508181036020830152610aa78188610a16565b90508181036040830152610abb8187610a16565b90508181036060830152610acf8186610a16565b90508181036080830152610ae38185610a16565b905081810360a0830152610af78184610a16565b9050979650505050505050565b6000602082019050610b196000830184610a4f565b92915050565b6000604051905081810181811067ffffffffffffffff82111715610b4657610b45610c7b565b5b8060405250919050565b600067ffffffffffffffff821115610b6b57610b6a610c7b565b5b601f19601f8301169050602081019050919050565b600081519050919050565b600082825260208201905092915050565b6000610ba782610bae565b9050919050565b600073ffffffffffffffffffffffffffffffffffffffff82169050919050565b6000819050919050565b82818337600083830152505050565b60005b83811015610c05578082015181840152602081019050610bea565b83811115610c14576000848401525b50505050565b60006002820490506001821680610c3257607f821691505b60208210811415610c4657610c45610c4c565b5b50919050565b7f4e487b7100000000000000000000000000000000000000000000000000000000600052602260045260246000fd5b7f4e487b7100000000000000000000000000000000000000000000000000000000600052604160045260246000fd5b6000601f19601f8301169050919050565b610cc481610bce565b8114610ccf57600080fd5b5056fea26469706673582212203dff6d2c72e71125d5e810f653880f71f9ca6ccbc8e8923e74528aa8df38a51464736f6c63430008000033",
  "immutableReferences": {},
  "source": "// SPDX-License-Identifier: MIT\r\npragma solidity >=0.4.22 <0.9.0;\r\n\r\ncontract Patents{\r\n    address public owner;\r\n    uint public value;\r\n    struct Patent {\r\n         string Title;\r\n         string Description;\r\n         string userId;\r\n         string Cid;\r\n         string Inventor;\r\n         string ApplicationID;\r\n\r\n     }\r\n     Patent[] public patentsID;\r\n     uint256 public patentCount;\r\n\r\n  \r\n\r\n    function changeValue(string calldata newTitle, string calldata newDescription, string calldata newInventor, string calldata newUserID, string calldata newCid,string memory newapplicationid) public payable {\r\npatentsID.push(Patent({Title:newTitle,Description:newDescription,userId:newUserID,Cid:newCid,Inventor:newInventor,ApplicationID:newapplicationid}));\r\n        // string memory newTitle, string memory newDescription\r\n        // patentsID[patentCount] = Patent(newTitle, newDescription); , ,\r\n        // patentCount++;\r\n\r\n    }\r\n}",
  "sourcePath": "D:\\fnlyr proj\\patentblockchain\\client\\src\\blockchain\\contracts\\Patents.sol",
  "compiler": {
    "name": "solc",
    "version": "0.8.0+commit.c7dfd78e.Emscripten.clang"
  },
  "schemaVersion": "3.4.16",
  "updatedAt": "2024-04-05T13:56:10.808Z",
  "networkType": "ethereum",
  "devdoc": {
    "kind": "dev",
    "methods": {},
    "version": 1
  },
  "userdoc": {
    "kind": "user",
    "methods": {},
    "version": 1
  }
}